:020000040000FA
:100000000C9465000C948D000C948D000C948D0064
:100010000C948D000C948D000C948D000C948D002C
:100020000C948D000C948D000C948D000C948D001C
:100030000C948D000C948D000C948D000C948D000C
:100040000C94AA040C948D000C9478040C94520423
:100050000C948D000C948D000C948D000C948D00EC
:100060000C948D000C948D000000000025002800E9
:100070002B000000000023002600290000000008DB
:10008000000201000003040700000000000000005F
:1000900000000000240027002A00010204081020AC
:1000A000408001020408102001020408102004040A
:1000B0000404040404040202020202020303030310
:1000C0000303000102030405F40411241FBECFEF53
:1000D000D8E0DEBFCDBF11E0A0E0B1E0EAE0F1E1A1
:1000E00002C005900D92A831B107D9F721E0A8E12F
:1000F000B1E001C01D92A63EB207E1F710E0C5E6EF
:10010000D0E004C02197FE010E947D08C436D107CB
:10011000C9F70E9448050C9483080C940000CF9204
:10012000DF92EF92FF92CF93C42F6B01072E000C4A
:10013000EE08FF088C3091057CF18D3F23E092079B
:1001400074F5861797076CF5092E000CAA0BBB0BEC
:10015000BC01CD016C5071098109910927E0660F3E
:10016000771F881F991F2A95D1F7A70196012C5058
:100170003109410951090E942208CC2331F08FEF47
:1001800090E0AC01421B530B9A01C901CF91FF9043
:10019000EF90DF90CF9008958CE090E0D5CF8CEF7A
:1001A00093E09C01990F440B550B2C193D094E0906
:1001B0005F09AFE7B0E00E9441082CEF33E040E078
:1001C00050E02C193D094E095F090E942208205871
:1001D0003F4F4F4F5F4FD1CFAF92BF92CF92DF9241
:1001E000EF92FF920F931F93CF93DF936C017B01EC
:1001F0008B01040F151FEB015E01AE18BF08C0177D
:10020000D10759F06991D601ED91FC910190F081EF
:10021000E02DC6010995892B79F7C501DF91CF91B2
:100220001F910F91FF90EF90DF90CF90BF90AF9014
:100230000895FC01538D448D252F30E0842F90E0EC
:10024000821B930B541710F0CF96089501970895D1
:10025000FC01918D828D981761F0A28DAE0FBF2F9A
:10026000B11D5D968C91928D9F5F9F73928F90E0F0
:1002700008958FEF9FEF0895FC01918D828D98175F
:1002800031F0828DE80FF11D858D90E008958FEF9C
:100290009FEF0895FC01918D228D892F90E0805C65
:1002A0009F4F821B91098F739927089582E291E0F5
:1002B0000E944A0121E0892B09F420E0822F089551
:1002C00080E090E0892B29F00E94560181110C9466
:1002D00000000895FC01A48DA80FB92FB11DA35AE9
:1002E000BF4F2C91848D90E001968F739927848F56
:1002F000A689B7892C93A089B1898C918370806479
:100300008C93938D848D981306C00288F389E02D19
:1003100080818F7D80830895EF92FF920F931F93CA
:10032000CF93DF93EC0181E0888F9B8D8C8D9813A8
:100330001AC0E889F989808185FF15C09FB7F894B4
:10034000EE89FF896083E889F98980818370806400
:1003500080839FBF81E090E0DF91CF911F910F914B
:10036000FF90EF900895F62E0B8D10E00F5F1F4F5A
:100370000F731127E02E8C8D8E110CC00FB607FC69
:10038000FACFE889F989808185FFF5CFCE010E94F7
:100390006A01F1CFEB8DEC0FFD2FF11DE35AFF4FFA
:1003A000F0829FB7F8940B8FEA89FB898081806285
:1003B000CFCFCF93DF93EC01888D8823B9F0AA8942
:1003C000BB89E889F9898C9185FD03C0808186FD10
:1003D0000DC00FB607FCF7CF8C9185FFF2CF80815F
:1003E00085FFEDCFCE010E946A01E9CFDF91CF9169
:1003F0000895833081F028F4813099F08230A9F09B
:1004000008958730A9F08830C9F08430B1F4809124
:1004100080008F7D03C0809180008F778093800063
:10042000089584B58F7784BD089584B58F7DFBCF03
:100430008091B0008F778093B00008958091B000D4
:100440008F7DF9CFCF93DF93282F30E0F901E45867
:10045000FF4F8491F901E656FF4FD491F901E2551F
:10046000FF4FC491CC23A1F081110E94F901EC2F20
:10047000F0E0EE0FFF1FEE58FF4FA591B491EC9105
:10048000ED2381E090E009F480E0DF91CF910895C1
:1004900080E090E0FACF1F93CF93DF93282F30E0D6
:1004A000F901E458FF4F8491F901E656FF4FD491CA
:1004B000F901E255FF4FC491CC23A9F0162F811109
:1004C0000E94F901EC2FF0E0EE0FFF1FE859FF4FFB
:1004D000A591B4918FB7F894EC91111108C0D09503
:1004E000DE23DC938FBFDF91CF911F910895DE2B28
:1004F000F8CF682F8091CB010E944B028091E201DE
:100500009091E3018230910538F0880F991F880F90
:10051000991F05970197F1F7089581E00C947902EE
:10052000682F8091CA019091CB0189130C944B02E2
:100530000895CF93DF9390E0FC01E656FF4F24919E
:1005400082559F4FFC0184918823D1F090E0880F61
:10055000991FFC01E057FF4FA591B491FC01E859A8
:10056000FF4FC591D49161110EC09FB7F8948C9143
:10057000E22FE0958E238C932881E223E8839FBFAE
:10058000DF91CF9108958FB7F894EC91E22BEC9323
:100590008FBFF6CF8E50806480937C0080917A006C
:1005A000806480937A0080917A0086FDFCCF8091F0
:1005B00078009091790008953FB7F89480911901DF
:1005C00090911A01A0911B01B0911C0126B5A89B26
:1005D00005C02F3F19F00196A11DB11D3FBFBA2FD5
:1005E000A92F982F8827BC01CD01620F711D811D95
:1005F000911D42E0660F771F881F991F4A95D1F71A
:1006000008958F929F92AF92BF92CF92DF92EF9216
:10061000FF924B015C010E94DC026B017C010E9495
:10062000DC026C197D098E099F09683E73408105C3
:100630009105A8F321E0821A9108A108B10888EE7B
:10064000C80E83E0D81EE11CF11C81149104A104A2
:10065000B10429F7FF90EF90DF90CF90BF90AF905B
:100660009F908F9008958EBD00000DB407FEFDCFC2
:100670008EB508950F931F930091CC011091CD0179
:100680002091CE013091CF0140E052E16AE770E065
:1006900080E0041715072607370740F4769567951D
:1006A000579547958F5F8630A1F787E0982F906A1E
:1006B0009695809581709CBD8DBD80E01F910F91B6
:1006C0000C947902CF93C82F0E943A038C2F80623A
:1006D0000E9433038093D001CF910C948D02CF936D
:1006E000C82F0E943A038C2F0E9433038093D001BD
:1006F0008FEF0E943303C82F0E948D028C2FCF9161
:100700000895FF920F931F93CF93DF93C82FF62E78
:10071000072F142F0E943A038C2F80620E9433030C
:100720008093D001CF2DD02F115020F089910E94BD
:100730003303FACFDF91CF911F910F91FF900C946B
:100740008D020E943A0380E50E9433038093D0011A
:1007500083E70E9433030C948D02CF93DF93D82F4D
:10076000C62F0E943A038D2F80620E94330380932C
:10077000D0018C2F0E943303DF91CF910C948D0216
:10078000CF93DF93EC0186E00E946F03877D229771
:10079000E1F045E550E060E070E04093DE01509309
:1007A000DF016093E0017093E101C0E0C82B6C2F82
:1007B00086E00E94AD0386E00E946F0391E0C813BB
:1007C00090E0892FDF91CF9108954BE950E060E0F0
:1007D00070E04093DE015093DF016093E00170937D
:1007E000E101C0E2E3CFFC0101900020E9F731977D
:1007F000AF01481B590BBC0182E291E00C94EC0064
:100800008F929F92AF92BF920F931F93CF93DF93DC
:10081000CDB7DEB7A1970FB6F894DEBF0FBECDBF40
:1008200019A2423008F44AE08E010F5D1F4F842E5A
:10083000912CB12CA12CA50194010E944C08E62F0B
:10084000B901CA01EA30F4F4E05DD801EE938D01FC
:10085000232B242B252B79F790E080E0109719F0BB
:10086000CD010E94F303A1960FB6F894DEBF0FBE30
:10087000CDBFDF91CF911F910F91BF90AF909F900F
:100880008F900895E95CE1CFBC01990F880B990B1B
:100890004AE00C940004682F70E090E080E04AE0A9
:1008A0000C9400041F920F920FB60F9211242F93F5
:1008B0003F934F935F936F937F938F939F93AF93E8
:1008C000BF93EF93FF9382E291E00E946A01FF9150
:1008D000EF91BF91AF919F918F917F916F915F91B8
:1008E0004F913F912F910F900FBE0F901F90189531
:1008F0001F920F920FB60F9211242F938F939F93F5
:10090000EF93FF93E0913201F09133018081E09108
:100910003801F091390182FD1BC0908180913B012B
:100920008F5F8F7320913C01821741F0E0913B0172
:10093000F0E0EE5DFE4F958F80933B01FF91EF91CC
:100940009F918F912F910F900FBE0F901F90189530
:100950008081F4CF1F920F920FB60F9211242F9324
:100960003F938F939F93AF93BF9380911E0190917C
:100970001F01A0912001B09121013091180123E0C5
:10098000230F2D3758F50196A11DB11D2093180195
:1009900080931E0190931F01A0932001B093210129
:1009A0008091190190911A01A0911B01B0911C0135
:1009B0000196A11DB11D8093190190931A01A09376
:1009C0001B01B0931C01BF91AF919F918F913F91FB
:1009D0002F910F900FBE0F901F90189526E8230FB0
:1009E0000296A11DB11DD2CFE2E2F1E01382128284
:1009F00088EE93E0A0E0B0E084839583A683B7837C
:100A000084E091E09183808385EC90E095878487F2
:100A100084EC90E09787868780EC90E0918B808BC8
:100A200081EC90E0938B828B82EC90E0958B848BB1
:100A300086EC90E0978B868B118E128E138E148E1F
:100A4000E8ECF1E087E0828388E0838380E896E940
:100A5000A8E9B0E084839583A683B78380E2818789
:100A6000108A118A85E0838B81E0848B45E050E019
:100A700060E070E0428F538F648F758F2FEB31E011
:100A8000318320831286E0ECF1E08683878308952A
:100A9000CF93DF93CDB7DEB728970FB6F894DEBFBC
:100AA0000FBECDBF789484B5826084BD84B581606B
:100AB00084BD85B5826085BD85B5816085BD809129
:100AC0006E00816080936E001092810080918100A1
:100AD0008260809381008091810081608093810099
:100AE000809180008160809380008091B10084605B
:100AF0008093B1008091B00081608093B0008091BC
:100B00007A00846080937A0080917A00826080937A
:100B10007A0080917A00816080937A0080917A00D7
:100B2000806880937A001092C1001FB7F89480917A
:100B30001D01811127C0E8EBF0E08491E4EAF0E0C8
:100B40009491E82FF0E0EE0FFF1FE057FF4FA591C3
:100B5000B491EC91E92321F461E08AE00E944B0218
:100B600061E08AE00E9499028CB580618CBD8CB5F1
:100B700080648CBD61E08DE00E94990261E08BE0B1
:100B80000E94990280911D018F5F80931D011FBFFC
:100B90008091CA018F3F09F481C09091CB019F3FA2
:100BA00009F47CC0891741F061E00E94990261E07C
:100BB0008091CB010E94990280E00E94900281E026
:100BC0000E94790265E070E080E090E00E940103FD
:100BD0006FE584E00E94AD0390E080E00E94C003D6
:100BE0008DE10E946F03182F0E94A1038DE10E94E6
:100BF0006F0391E0181390E09093D801882341F09F
:100C0000181302C00E94A10360E08DE10E94AD03B1
:100C10001092DA0160E08CE10E94AD031092DC01D9
:100C20006FE381E00E94AD0363E082E00E94AD03C8
:100C300080E28093D10111E16091D101812F0E9466
:100C4000AD031F5F1731C1F763E083E00E94AD037E
:100C500085E08093DB016CE40E94AD0360E787E0F0
:100C60000E94AD0382EE0E94620381EE0E94620345
:100C70006CE080E00E94AD0380E00E946F038093EF
:100C8000D70181FD0BC0682F62606093D70180E0BF
:100C90000E94AD038BE19EE40197F1F780E00E9492
:100CA00090028091DE019091DF018230910538F051
:100CB000880F991F880F991F05970197F1F7809169
:100CC000DA01882319F081EE0E9462036091D70156
:100CD0006E7F6093D70180E00E94AD0382E00E94A6
:100CE0006F03E2ECF0E0E49161E070E001C0660FB8
:100CF000EA95EAF7682B82E00E94AD0381EE8983D2
:100D000080EF8A838B8388EE8C8389EE8D831E82AD
:100D10001F8218864091DB01BE016F5F7F4F8AE022
:100D20000E9481034091DB01BE016F5F7F4F80E134
:100D30000E94810360E081E00E94AD038091DA01AE
:100D4000882351F08DE10E946F03682F6D7F8DE144
:100D50000E94AD031092DA016091D701637F686051
:100D60006093D70180E00E94AD0382E090E00E9492
:100D7000C00386E00E946F03682F676086E00E94D0
:100D8000AD036CE685E00E94AD038CE08093C0016A
:100D90008FE78093C1018093C2018093C301809348
:100DA000C4018093C5011092C6011092C701E09161
:100DB0003201F091330182E08083E0912E01F091C5
:100DC0002F011082E0913001F09131018FEC80838E
:100DD00010923A01E0913601F091370186E080836C
:100DE000E0913401F0913501808180618083E09150
:100DF0003401F0913501808188608083E091340175
:100E0000F0913501808180688083E0913401F09118
:100E1000350180818F7D808368EE73E080E090E013
:100E20000E94010360E083E00E94990260E084E098
:100E30000E94990290E0E92E90E0F92E8EE00E9447
:100E4000CA0240E06EEF71E00E948F008093C00103
:100E500081E10E94CA0241E06EEF71E00E948F00C2
:100E60008093C20180E10E94CA0240E06EEF71E00F
:100E70000E948F008093C10182E10E94CA0240E07B
:100E80006CE072E00E948F008093C3018FE00E94AB
:100E9000CA0241E06CE072E00E948F008093C401BE
:100EA00083E10E94CA0241E06CE072E00E948F0080
:100EB0008093C50183E00E94220221E0892B09F47E
:100EC00020E02093C60184E00E94220221E0892BC9
:100ED00009F420E02093C7018091DC0110E008E0D4
:100EE000811107C01091D101012F193008F008E0DD
:100EF000101B0E943A0380EA0E9433038093D001C2
:100F000080ECA82E81E0B82E015030F0F5018191DF
:100F10005F010E943303F8CF115020F080E00E945F
:100F20003303FACF0E948D0281E00E9490028FB7B6
:100F3000F89480901E0190901F01A0902001B09025
:100F400021018FBF8FEF0E9462038091D0018073D7
:100F500009F069C02FB7F89480911E0190911F018C
:100F6000A0912001B09121012FBF88199909AA09E8
:100F7000BB0980369105A105B10520F381E080937E
:100F8000DD018091C0010E944B0482E191E00E944A
:100F9000F3038091C2010E944B0482E191E00E9420
:100FA000F3038091C1010E944B0482E191E00E9411
:100FB000F3038091C3010E944B0482E191E00E94FF
:100FC000F3038091C4010E944B0482E191E00E94EE
:100FD000F3038091C5010E944B0482E191E00E94DD
:100FE000F3038091C60190E00E94440482E191E005
:100FF0000E94F3038091C70190E00E94440482E1C3
:1010000091E00E94F30384E191E00E94F303E11474
:10101000F10409F413CF0E945601882309F40ECF7E
:101020000E9400000BCF80E00E94900260E787E002
:101030000E94AD038091D00184FFA3CF81EE0E9476
:1010400062039FCF052E97FB1EF400940E9439087F
:1010500057FD07D00E944C0807FC03D04EF40C94B7
:10106000390850954095309521953F4F4F4F5F4F30
:10107000089590958095709561957F4F8F4F9F4F04
:1010800008950E946E08A59F900DB49F900DA49F97
:10109000800D911D11240895A1E21A2EAA1BBB1BDD
:1010A000FD010DC0AA1FBB1FEE1FFF1FA217B30734
:1010B000E407F50720F0A21BB30BE40BF50B661F4A
:1010C000771F881F991F1A9469F76095709580950E
:1010D00090959B01AC01BD01CF010895A29FB00185
:1010E000B39FC001A39F700D811D1124911DB29F5C
:1010F000700D811D1124911D0895EE0FFF1F0590A5
:10110000F491E02D0994F894FFCF000000008C01C9
:10111000EC001901D9014A0128013C0120000D0A07
:021120000000CD
:107E0000112484B714BE81FFF0D085E080938100F7
:107E100082E08093C00088E18093C10086E0809377
:107E2000C20080E18093C4008EE0C9D0259A86E02C
:107E300020E33CEF91E0309385002093840096BBD3
:107E4000B09BFECF1D9AA8958150A9F7CC24DD24C4
:107E500088248394B5E0AB2EA1E19A2EF3E0BF2EE7
:107E6000A2D0813461F49FD0082FAFD0023811F036
:107E7000013811F484E001C083E08DD089C08234E0
:107E800011F484E103C0853419F485E0A6D080C0E4
:107E9000853579F488D0E82EFF2485D0082F10E0AE
:107EA000102F00270E291F29000F111F8ED06801E7
:107EB0006FC0863521F484E090D080E0DECF843638
:107EC00009F040C070D06FD0082F6DD080E0C81688
:107ED00080E7D80618F4F601B7BEE895C0E0D1E017
:107EE00062D089930C17E1F7F0E0CF16F0E7DF06D8
:107EF00018F0F601B7BEE89568D007B600FCFDCFD4
:107F0000A601A0E0B1E02C9130E011968C91119780
:107F100090E0982F8827822B932B1296FA010C0160
:107F200087BEE89511244E5F5F4FF1E0A038BF0790
:107F300051F7F601A7BEE89507B600FCFDCF97BE46
:107F4000E89526C08437B1F42ED02DD0F82E2BD052
:107F50003CD0F601EF2C8F010F5F1F4F84911BD097
:107F6000EA94F801C1F70894C11CD11CFA94CF0C13
:107F7000D11C0EC0853739F428D08EE10CD085E9AC
:107F80000AD08FE07ACF813511F488E018D01DD067
:107F900080E101D065CF982F8091C00085FFFCCF94
:107FA0009093C60008958091C00087FFFCCF809118
:107FB000C00084FD01C0A8958091C6000895E0E648
:107FC000F0E098E1908380830895EDDF803219F02E
:107FD00088E0F5DFFFCF84E1DECF1F93182FE3DFCA
:107FE0001150E9F7F2DF1F91089580E0E8DFEE27F6
:047FF000FF270994CA
:027FFE00040479
:00000001FF
